{
  "contractName": "CXNcontract",
  "abi": [
    {
      "constant": true,
      "inputs": [],
      "name": "wallet",
      "outputs": [
        {
          "name": "",
          "type": "address"
        }
      ],
      "payable": false,
      "stateMutability": "view",
      "type": "function"
    },
    {
      "constant": true,
      "inputs": [],
      "name": "owner",
      "outputs": [
        {
          "name": "",
          "type": "address"
        }
      ],
      "payable": false,
      "stateMutability": "view",
      "type": "function"
    },
    {
      "constant": false,
      "inputs": [
        {
          "name": "newOwner",
          "type": "address"
        }
      ],
      "name": "transferOwnership",
      "outputs": [],
      "payable": false,
      "stateMutability": "nonpayable",
      "type": "function"
    },
    {
      "inputs": [],
      "payable": false,
      "stateMutability": "nonpayable",
      "type": "constructor"
    },
    {
      "payable": true,
      "stateMutability": "payable",
      "type": "fallback"
    },
    {
      "anonymous": false,
      "inputs": [
        {
          "indexed": true,
          "name": "previousOwner",
          "type": "address"
        },
        {
          "indexed": true,
          "name": "newOwner",
          "type": "address"
        }
      ],
      "name": "OwnershipTransferred",
      "type": "event"
    },
    {
      "constant": false,
      "inputs": [],
      "name": "finishSale",
      "outputs": [],
      "payable": false,
      "stateMutability": "nonpayable",
      "type": "function"
    }
  ],
  "bytecode": "0x606060405242600255635acda460600355635ad54710600455635af13ce0600555635af63c90600655635affbd6060075573c947ae55a26311ffa0ea801c1ba8edef1a603046600860006101000a81548173ffffffffffffffffffffffffffffffffffffffff021916908373ffffffffffffffffffffffffffffffffffffffff160217905550341561009057600080fd5b336000806101000a81548173ffffffffffffffffffffffffffffffffffffffff021916908373ffffffffffffffffffffffffffffffffffffffff160217905550737bd85e4acf2752149d2a10c789f5762fea49eff1600160006101000a81548173ffffffffffffffffffffffffffffffffffffffff021916908373ffffffffffffffffffffffffffffffffffffffff160217905550610658806101346000396000f300606060405260043610610062576000357c0100000000000000000000000000000000000000000000000000000000900463ffffffff168063521eb273146100da5780638da5cb5b1461012f5780638f86f5ea14610184578063f2fde38b14610199575b61006b346101d2565b151561007657600080fd5b600860009054906101000a900473ffffffffffffffffffffffffffffffffffffffff1673ffffffffffffffffffffffffffffffffffffffff166108fc349081150290604051600060405180830381858888f1935050505015156100d857600080fd5b005b34156100e557600080fd5b6100ed610232565b604051808273ffffffffffffffffffffffffffffffffffffffff1673ffffffffffffffffffffffffffffffffffffffff16815260200191505060405180910390f35b341561013a57600080fd5b610142610258565b604051808273ffffffffffffffffffffffffffffffffffffffff1673ffffffffffffffffffffffffffffffffffffffff16815260200191505060405180910390f35b341561018f57600080fd5b61019761027d565b005b34156101a457600080fd5b6101d0600480803573ffffffffffffffffffffffffffffffffffffffff169060200190919050506104d7565b005b6000600254421180156101e6575060055442105b156101fe57674563918244f40000821015905061022d565b60065442118015610210575060075442105b156102285767016345785d8a0000821015905061022d565b600090505b919050565b600860009054906101000a900473ffffffffffffffffffffffffffffffffffffffff1681565b6000809054906101000a900473ffffffffffffffffffffffffffffffffffffffff1681565b60008060009054906101000a900473ffffffffffffffffffffffffffffffffffffffff1673ffffffffffffffffffffffffffffffffffffffff163373ffffffffffffffffffffffffffffffffffffffff161415156102da57600080fd5b600754421115156102ea57600080fd5b6a0250ec4ddca432f6000000600160009054906101000a900473ffffffffffffffffffffffffffffffffffffffff1673ffffffffffffffffffffffffffffffffffffffff166370a08231306040518263ffffffff167c0100000000000000000000000000000000000000000000000000000000028152600401808273ffffffffffffffffffffffffffffffffffffffff1673ffffffffffffffffffffffffffffffffffffffff168152602001915050602060405180830381600087803b15156103b257600080fd5b5af115156103bf57600080fd5b50505060405180519050101515156103d657600080fd5b7338b08071db8acf1446f87161fb55de9416dc8a6d9050600160009054906101000a900473ffffffffffffffffffffffffffffffffffffffff1673ffffffffffffffffffffffffffffffffffffffff1663a9059cbb826a0250ec4ddca432f60000006040518363ffffffff167c0100000000000000000000000000000000000000000000000000000000028152600401808373ffffffffffffffffffffffffffffffffffffffff1673ffffffffffffffffffffffffffffffffffffffff16815260200182815260200192505050602060405180830381600087803b15156104bc57600080fd5b5af115156104c957600080fd5b505050604051805190505050565b6000809054906101000a900473ffffffffffffffffffffffffffffffffffffffff1673ffffffffffffffffffffffffffffffffffffffff163373ffffffffffffffffffffffffffffffffffffffff1614151561053257600080fd5b600073ffffffffffffffffffffffffffffffffffffffff168173ffffffffffffffffffffffffffffffffffffffff161415151561056e57600080fd5b8073ffffffffffffffffffffffffffffffffffffffff166000809054906101000a900473ffffffffffffffffffffffffffffffffffffffff1673ffffffffffffffffffffffffffffffffffffffff167f8be0079c531659141344cd1fd0a4f28419497f9722a3daafe3b4186f6b6457e060405160405180910390a3806000806101000a81548173ffffffffffffffffffffffffffffffffffffffff021916908373ffffffffffffffffffffffffffffffffffffffff160217905550505600a165627a7a72305820daad4c71e4c138cbac5c0799f636147bb14424de3fd75edffbc12123871462350029",
  "source": "pragma solidity ^0.4.19;\r\n\r\n\r\ncontract Ownable {\r\n    address public owner;\r\n\r\n\r\n    event OwnershipTransferred(address indexed previousOwner, address indexed newOwner);\r\n\r\n\r\n    /**\r\n     * @dev The Ownable constructor sets the original `owner` of the contract to the sender\r\n     * account.\r\n     */\r\n    function Ownable() public {\r\n        owner = msg.sender;\r\n    }\r\n\r\n    /**\r\n     * @dev Throws if called by any account other than the owner.\r\n     */\r\n    modifier onlyOwner() {\r\n        require(msg.sender == owner);\r\n        _;\r\n    }\r\n\r\n    /**\r\n     * @dev Allows the current owner to transfer control of the contract to a newOwner.\r\n     * @param newOwner The address to transfer ownership to.\r\n     */\r\n    function transferOwnership(address newOwner) public onlyOwner {\r\n        require(newOwner != address(0));\r\n        emit OwnershipTransferred(owner, newOwner);\r\n        owner = newOwner;\r\n    }\r\n\r\n}\r\n\r\n\r\ncontract CxNtoken {\r\n    function totalSupply() public view returns (uint256);\r\n    function balanceOf(address who) public view returns (uint256);\r\n    function transfer(address to, uint256 value) public returns (bool);\r\n    event Transfer(address indexed from, address indexed to, uint256 value);\r\n}\r\n\r\ncontract CXNcontract is Ownable{\r\n\r\n    CxNtoken token;\r\n\r\n    // Only for testNet:\r\n    uint privSale1start = now;\r\n\r\n    //    //  20 Mar 2018  07:00:00 PM CST\r\n    //    uint privSale1start = 1521594000;\r\n\r\n    //  10 Apr 2018  11:59:00 PM CST\r\n    uint privSale1end = 1523426400;\r\n\r\n    // 16 Apr 2018  07:00:00 PM CST\r\n    uint privSale2start = 1523926800;\r\n\r\n    // 07 May 2018  11:59:00 PM CST\r\n    uint privSale2end = 1525759200;\r\n\r\n    // 11 May 2018 07:00:00 PM CST\r\n    uint saleStart = 1526086800;\r\n\r\n    // 18 Jun 2018 11:59:00 PM CST\r\n    uint saleEnd = 1526709600;\r\n\r\n\r\n    address public wallet = 0xc947aE55A26311FFA0Ea801c1ba8Edef1A603046;\r\n\r\n    function CXNcontract() public {\r\n        //\r\n        token = CxNtoken(0x7BD85e4Acf2752149d2a10c789F5762FEa49EFf1);\r\n    }\r\n\r\n    function() public payable {\r\n        require(checkValue(msg.value));\r\n        wallet.transfer(msg.value);\r\n    }\r\n\r\n    function checkValue(uint256 amount) internal view returns (bool){\r\n        if (now > privSale1start && now < privSale2end) return (amount >= 5 ether);\r\n        else if (now > saleStart && now < saleEnd) return (amount >= 0.1 ether);\r\n        return false;\r\n    }\r\n\r\n    function finishSale() public onlyOwner {\r\n        require(now > saleEnd);\r\n        require(token.balanceOf(this) >= 2800000 ether);\r\n\r\n        address Bountyhive = 0x38B08071db8Acf1446F87161fb55dE9416DC8A6d;\r\n        token.transfer(Bountyhive, 2800000 ether);\r\n    }\r\n}",
  "sourcePath": "D:\\mparsecsource\\SocialCxN\\contracts\\CXNcontract.sol",
  "compiler": {
    "name": "solc",
    "version": "0.4.21+commit.dfe3193c.Emscripten.clang"
  },
  "schemaVersion": "2.0.0",
  "updatedAt": "2018-03-20T03:23:13.503Z"
}